:020000040000FA
:08000000803102288731EC2F4A
:10000A002000A300A101A20121082307FB007B080D
:10001A008600013087000108FC007C08A000200847
:10002A00031908002008FB00FC017B08F2007C0889
:10003A00F3007A08FD007D08F4009031FA2080313F
:10004A0001302000A1070030A23D09287708803935
:10005A00F80078082000A4007735F8007808AB008B
:10006A00F61B2B142B08031948282B0A031D4528B5
:10007A000030F7000030F6000030F5000030F400E0
:10008A00F617F70150280030F7000030F60000306C
:10009A00F5000030F40073088039F8007808A406E7
:1000AA007335F8007808AC00F21B2C142C080319DD
:1000BA006C282C0A031D69280030F3000030F20076
:1000CA000030F1000030F000F217F301742800301C
:1000DA00F3000030F2000030F1000030F000730845
:1000EA00720471047004031D93280030F700003075
:1000FA00F6000030F5000030F4008030F6047F305E
:10010A00F7042408F8007808F7047708F30076085B
:10011A00F2007508F1007408F00008002B08031DAE
:10012A009F280030F3000030F2000030F100003068
:10013A00F00008002B08F800F9017908FB002C08E8
:10014A007802FA00031CFB037A087F3EA500003000
:10015A007B3DA6007708A3007608A2007508A100D7
:10016A007408A0000030F7000030F6000030F500F7
:10017A000030F4000030AA000030A9000030A800C6
:10018A000030A700AC011A302C02031804292C08ED
:10019A000319E6280130A035A10DA20DA30D890B84
:1001AA00D0280130F435F50DF60DF70D890BD72857
:1001BA00AA1B74140130A735A80DA90DAA0D890B25
:1001CA00E02873082302031DF42872082202031D83
:1001DA00F42871082102031DF42870082002031C68
:1001EA00FF282A177008A0027108A13B7208A23BD7
:1001FA007308A33B0130F8007808AC07C828230825
:10020A00220421042004031D2714F61B212901308E
:10021A00F435F50DF60DF70D890B0D29AA1B74148B
:10022A000130A735A80DA90DAA0D890B1629FF3093
:10023A00A507FF30A63D0A29AC01AA1F3A29FF30BB
:10024A002705F800FF302805F900FF302905FA00D4
:10025A007F302A05FB007B087A04790478040319A5
:10026A00741838293A29AC01AC0A2C0803196329F5
:10027A000130F4070030F53D0030F63D0030F73D1F
:10028A00771C63297408F8007508F9007608FA00E3
:10029A007708FB000130FC00FB37FA0CF90CF80C6C
:1002AA00FC0B51297B08F7007A08F6007908F5005B
:1002BA007808F4000130A5070030A63D2608803AE8
:1002CA00F80080307802031D6C29FF302502031CD8
:1002DA007B29FF302000A5000030A6000030F7007F
:1002EA000030F6000030F5000030F4002000260847
:1002FA00803AF80080307802031D852901302502F2
:10030A00031893292000A501A6010030F700003048
:10031A00F6000030F5000030F400A40120002508A2
:10032A00F8007808AB002B1C9C29F617A0297F300F
:10033A00F8007808F6052B36F8007808F7008628C2
:10034A002100BE00BA01BB01200057082100D000DD
:10035A00200056082100CF00200055082100CE00B9
:10036A00200054082100CD0050082000CB002100B5
:10037A004F082000CA0021004E082000C9002100B1
:10038A004D082000C8000030CF000030CE000030F9
:10039A00CD000030CC009331A42381310318EE291B
:1003AA0001302100BA000030BB005008F3004F08AA
:1003BA00F2004E08F1004D08F0009E31DA26813134
:1003CA0073082100D0007208CF007108CE007008AF
:1003DA00CD002100D301D401220045082100C1002B
:1003EA00220044082100C0003A083B04031D002AE9
:1003FA002200481D1A2A21003A083B04031D072A35
:10040A002B30082A2D30A4000030A5002408200033
:10041A00D90059082300A00001302100D307003079
:10042A00D43DFF30C007FF30C13D21005008F30022
:10043A004F08F2004E08F1004D08F00093312C23CA
:10044A00813170037104031D722A20005808BF3ECF
:10045A00D900FF3003180030DA0000305A021A308F
:10046A000319590203183B2A01303C2A0030DB00E9
:10047A00DC015B082100A60020005C082100A7001F
:10048A002608270403194D2A6930F0009830502AAB
:10049A007130F0009830F1005308A03E90313A20B4
:1004AA008131FD302100C007FF30C13DA03020005E
:1004BA00D9005908A400210041082000A600210003
:1004CA0040082000A50021003E0892310A2220009F
:1004DA002508D5002408D400080021005008F3009C
:1004EA004F08F2004E08F1004D08F00093312C231A
:1004FA00813170087104031DCA2A20005808BF3EC2
:10050A00D900FF3003180030DA0000305A021A30DE
:10051A00031959020318932A0130942A0030DB0088
:10052A00DC015B082100A80020005C082100A9006A
:10053A00280829040319A52A6D30F0009830A82A42
:10054A007530F0009830F1005308A03E90313A20FF
:10055A008131FD302100C007FF30C13DA0302000AD
:10056A00D9005908A400210041082000A600210052
:10057A0040082000A50021003E0892310A222000EE
:10058A002508D5002408D40008003F302100D800EF
:10059A008030D7000030D6000030D500D101D2011A
:1005AA005008F3004F08F2004E08F1004D08F00021
:1005BA000030F7000030F6000030F5000030F4009B
:1005CA00913174218131031C1B2B9B2B413020005C
:1005DA00B1002030B0000030AF000030AE00210082
:1005EA0058082000B500210057082000B400210057
:1005FA0056082000B300210055082000B2008B31B4
:10060A009D238131200031082100D80020003008C4
:10061A002100D70020002F082100D60020002E0834
:10062A002100D5000130D1070030D23D2100500809
:10063A002000CB0021004F082000CA0021004E08EC
:10064A002000C90021004D082000C8004130B10037
:10065A002030B0000030AF000030AE002100580852
:10066A002000B500210057082000B40021005608D8
:10067A002000B300210055082000B2008B319D23D1
:10068A00813120003108CF003008CE002F08CD007C
:10069A002E08CC009331A4238131031C762BEB2A3C
:1006AA004130F3002030F2000030F1000030F00059
:1006BA0021005808F7005708F6005608F5005508B3
:1006CA00F40080312B20813173082100D800720890
:1006DA00D7007108D6007008D500FF30D107FF3067
:1006EA00D23D210050082000CB0021004F082000F5
:1006FA00CA0021004E082000C90021004D08200030
:10070A00C800210058082000CF0021005708200007
:10071A00CE00210056082000CD00210055082000F7
:10072A00CC009331A4238131031C552B2000580897
:10073A00D900DA015908F6005A08F7009031592011
:10074A00813176082000DB005B082100C2004208E4
:10075A002000D90059082100BF0067304206031D56
:10076A00D22B220046084704031DBF2B0130C600C6
:10077A000030C7004708803A2000D900803059026B
:10078A00031DCA2B0130220046020318D52B06305E
:10079A002100BC000030BD00DD2B2200C71BCC2B82
:1007AA00220047082100BD00220046082100BC00A3
:1007BA0067304206031D102C5208803A2000D900E7
:1007CA007F305902031DEC2BFC3021005102031C1F
:1007DA000A2C21003C08FF3E2000D900FF302100EE
:1007EA003D3D2000DA005A08803ADB002100520819
:1007FA00803A20005B02031D062C210051082000CC
:10080A005902031C0A2C66300B2C65302000D900D3
:10081A0059082100BF003D08B5003C08B400673004
:10082A004206031D1D2C66303F060319D21F212CD8
:10083A000130B4070030B53D66303F06031D392C40
:10084A00D21F312C3F30D8008030D7000030D6007C
:10085A000030D500D101D201673042060319392C84
:10086A005108B4075208B53DCB01CC015008C60067
:10087A004F08C5004E08C4004D08C3005808A3001D
:10088A005708A2005608A1005508A0004C08803A53
:10089A002000D90021003508803A20005902031DA2
:1008AA00592C210034084B0203180A2D210058083C
:1008BA00F3005708F2005608F1005508F000460800
:1008CA00F7004508F6004408F5004308F4008031B3
:1008DA002B20813173082000B0007208AF00710824
:1008EA00AE007008AD0095315925813120003008DD
:1008FA002100CA0020002F082100C90020002E086C
:10090A002100C80020002D082100C7004A08F30072
:10091A004908F2004808F1004708F00092315A22CB
:10092A00813171082100B9007008B8004A08200016
:10093A00B500210049082000B40021004808200021
:10094A00B300210047082000B20021005808200007
:10095A00B100210057082000B000210056082000ED
:10096A00AF00210055082000AE008B319D23813154
:10097A0020003108CB003008CA002F08C9002E0811
:10098A00C800210046082000CF00210045082000A9
:10099A00CE00210044082000CD0021004308200099
:1009AA00CC0090311B20813120004B082100C60069
:1009BA0020004A082100C500200049082100C4007F
:1009CA00200048082100C3004130F3002030F20023
:1009DA000030F1000030F0005808F7005708F60020
:1009EA005608F5005508F40080312B208131730830
:1009FA002100D8007208D7007108D6007008D50007
:100A0A000130CB070030CC3D4B2C40302000B100E8
:100A1A00A030B0000030AF000030AE00210058080E
:100A2A002000B500210057082000B4002100560814
:100A3A002000B300210055082000B2008B319D230D
:100A4A008131200031082100CA002000300821002D
:100A5A00C90020002F082100C80020002E0821000C
:100A6A00C70046082000CB00210045082000CA0024
:100A7A00210044082000C900210043082000C800C2
:100A8A0021004A082000CF00210049082000CE009A
:100A9A00210048082000CD00210047082000CC0092
:100AAA009331A423813103185D2D00302100772D65
:100ABA0021004608F3004508F2004408F100430803
:100ACA00F0004A08F7004908F6004808F500470808
:100ADA00F400913174218131031C7E2D21003818D4
:100AEA007E2D0030CA000030C9000030C800003036
:100AFA00C70021004A08F3004908F2004808F1003B
:100B0A004708F0005008F7004F08F6004E08F500B5
:100B1A004D08F4008931B421813173082100C600DF
:100B2A007208C5007108C4007008C3002308D80001
:100B3A002208D7002108D6002008D50065303F06D4
:100B4A000319AC2D5208B7005108B600AE2DB601F4
:100B5A00B701B201B301B001B101CB01CC01CC2E76
:100B6A0021005808F3005708F2005608F10055080A
:100B7A00F0004608F7004508F6004408F500430867
:100B8A00F40080312B20813173082000B0007208F4
:100B9A00AF007108AE007008AD009531592581315A
:100BAA00200030082100CA0020002F082100C900B7
:100BBA0020002E082100C80020002D082100C700AF
:100BCA004A08F3004908F2004808F1004708F00013
:100BDA0092315A22813171082100B9007008B80097
:100BEA002200481A072E210038083904031D072E4F
:100BFA00673042060319B71F072E0130B0070030CD
:100C0A00B13D5A2E2100320833040319B71F262E8C
:100C1A002E302000D90021005308A03E8600013062
:100C2A00870020005908810001302100D3070030D5
:100C3A00D43DFF30C007FF30C13D0130B200003063
:100C4A00B300300831040319442E30302000D90093
:100C5A0021005308A03E8600013087002000590871
:100C6A00810001302100D3070030D43DFF30C00796
:100C7A00FF30C13DFF30B007FF30B13D262E3808A6
:100C8A00303E2000D90021005308A03E86000130E2
:100C9A00870020005908810001302100D307003065
:100CAA00D43DFF30C007FF30C13D4A082000B500DF
:100CBA00210049082000B400210048082000B300A0
:100CCA00210047082000B200210058082000B10086
:100CDA00210057082000B000210056082000AF006C
:100CEA00210055082000AE008B319D238131200060
:100CFA003108CB003008CA002F08C9002E08C800E6
:100D0A00210046082000CF00210045082000CE001F
:100D1A00210044082000CD00210043082000CC0017
:100D2A0090311B20813120004B082100C600200091
:100D3A004A082100C500200049082100C4002000FB
:100D4A0048082100C3004130F3002030F20000308F
:100D5A00F1000030F0005808F7005708F60056086E
:100D6A00F5005508F40080312B20813173082100E9
:100D7A00D8007208D7007108D6007008D500FF3075
:100D8A00B607FF30B73D0130CB070030CC3D4C08E9
:100D9A00803A2000D90021003508803A2000590203
:100DAA00031DDA2E210034084B020318EA2E210013
:100DBA005408803A2000D90080305902031DE82ED9
:100DCA004B3021005302031CB52D21003208330495
:100DDA00031D032F2200481E032F2E302000D900A6
:100DEA0021005308A03E86000130870020005908E0
:100DFA00810001302100D3070030D43D210053087F
:100E0A00A03E860001308700810165303F06031D40
:100E1A00D52F4F30CB000030CC004B08A03E8600C7
:100E2A00013087008101BA01BB01D21F252F013091
:100E3A00BA000030BB00D109D209D10A0319D20A7B
:100E4A000230BC000030BD00510852040319642F5F
:100E5A00FF302100CB07FF30CC3D0A30F0000030D4
:100E6A00F1005208F3005108F20091312F2181312B
:100E7A007008303E2000D90021004B08A03E8600B1
:100E8A00013087002000590881000A30F000003044
:100E9A00F10021005208F3005108F20088311220B3
:100EAA00813171082100D2007008D100FF30BC07DF
:100EBA00FF30BD3DFF30C007FF30C13D292F3D083F
:100ECA00803A2000D90080305902031D6F2F01306B
:100EDA0021003C0203182D2FFF302100CB07FF30E1
:100EEA00CC3D3A083B04031D7C2F2B307D2F2D303F
:100EFA00AA000030AB002A082000D90021004B08C4
:100F0A00A03E860001308700200059088100FF308A
:100F1A002100C007FF30C13DFF30CB07FF30CC3D79
:100F2A0020005808BF3ED900FF3003180030DA000D
:100F3A0000305A021A30031959020318A62F013039
:100F4A00A72F0030DB00DC015B082100AE00200087
:100F5A005C082100AF002E082F04031DB62F653050
:100F6A00B72F4530AC000030AD002C082000D90066
:100F7A0021004B08A03E8600013087002000590856
:100F8A008100FF302100C007FF30C13D4B08A03E61
:100F9A00F0000130F1005308A03E90313A2081312F
:100FAA00A0302000D9005908A400210041082000DF
:100FBA00A600210040082000A50021003E08923129
:100FCA000A2220002508D5002408D40008002000A1
:100FDA00EF013A3084000130850010309E31C4267A
:100FEA008731A03084000130850050309E31C426FC
:100FFA0020009431B62C24008F15080024000E1D01
:10100A000D280E1071088D0070088C000E1408004F
:10101A0071088D0070088C000800F601F11F1C2869
:10102A00F009F109F00A0319F10AF601F60AF31FA9
:10103A002728F209F309F20A0319F30A0130F40026
:10104A007408F606F701F8017008710403195628A6
:10105A00F501F50AF11B3B280130F035F10D890B3A
:10106A0032280130F4007408F5072F280130F735CB
:10107A00F80D890B3C2871087302031D4628700875
:10108A007202031C4D287008F2027108F33B7714B0
:10109A000130F136F00C890B4E280130F502031DA0
:1010AA003B28760803195E28F709F809F70A031995
:1010BA00F80A7808F1007708F00008002000BF005D
:1010CA003008C4003108C5003208C6003308C7001A
:1010DA003408C8003508C9003608CA003708CB00EA
:1010EA004430860000308700473FB800B81F7F2889
:1010FA000130802800302000B900BA013908C20046
:10110A003A08C300420843040319A928C409C509B7
:10111A00C609C709C809C909CA09CB09C40A031DEE
:10112A00A928C50A031DA928C60A031DA928C70A92
:10113A00031DA928C80A031DA928C90A031DA9282D
:10114A00CA0A031DA928CB0A2200C71BB028FD30F2
:10115A00C805FF30C9054708803A2000B80080302A
:10116A003802031DBB280130220046020318C32897
:10117A0001302000BD000030BE00CB282200470805
:10118A002000BE00220046082000BD0022004508BB
:10119A002000C100220044082000C0004208430485
:1011AA00031DDA282200481DDF28FF302000C0076F
:1011BA00FF30C13D4F302000CC000030CD0023006D
:1011CA00EF017529200044084504460447044804F1
:1011DA0049044A044B04031D0C293E08803AB8000E
:1011EA0080303802031DFB2801303D0203180C2908
:1011FA0020004108803AB80080303802031D0729D0
:10120A0001304002031C81292200C81C8129FF30B9
:10121A002000CC07FF30CD3D0A30A000A101A20179
:10122A00A301A401A501A601A7014408A800450835
:10123A00A9004608AA004708AB004808AC004908BC
:10124A00AD004A08AE004B08AF009631312688310E
:10125A0020002108F4002008F3009F317D278831FF
:10126A007308303E2000B8004C08A03E86000130CA
:10127A00870038088100FF30BD07FF30BE3DFF30D0
:10128A00C007FF30C13D0A30A000A101A201A3019D
:10129A00A401A501A601A7014408A8004508A900C0
:1012AA004608AA004708AB004808AC004908AD0048
:1012BA004A08AE004B08AF0097310D27883120004D
:1012CA002008C4002108C5002208C6002308C70058
:1012DA002408C8002508C9002608CA002708CB0028
:1012EA0020004D08803AB80080303802031D7F295B
:1012FA0001304C020318E728200042084304031D6A
:10130A0089292200481DA129FF302000CC07FF307F
:10131A00CD3D42084304031D94292B3095292D30D5
:10132A00BB000030BC003B08B8004C08A03E860059
:10133A00013087003808810020004C08A03EB80020
:10134A003808A4004108A6004008A5003F089231C9
:10135A000A2220002508B1002408B00008007308FA
:10136A0080392000A0002008F8007335A00020086A
:10137A00FA00F21B7A147A080319D1297A0A031D92
:10138A00CE290030F3000030F2000030F1000030C6
:10139A00F000F217F301D9290030F3000030F2000F
:1013AA000030F1000030F00077088039A0002008F2
:1013BA00F90079087806031D78177735A000200808
:1013CA00F900F61B791479080319F929790A031D1A
:1013DA00F6290030F7000030F6000030F500003042
:1013EA00F400F617F701012A0030F7000030F60082
:1013FA000030F5000030F4007A0879020318472A11
:10140A00781F0B2A8030A0002008F8067A08A0006E
:10141A002008FB007908A0002008FA007B08A00039
:10142A002008F9007008A0002008FB007408A0003A
:10143A002008F0007B08A0002008F4007108A00032
:10144A002008FB007508A0002008F1007B08A00016
:10145A002008F5007208A0002008FB007608A0000A
:10146A002008F2007B08A0002008F6007308A000FC
:10147A002008FB007708A0002008F3007B08A000E2
:10148A002008F700FB017908A000A1012108A300A8
:10149A007A082002A200031CA3032308803AA400AE
:1014AA0080302402031D5B2A1A302202031C912A6F
:1014BA0073087204710470040319652A0130662ADC
:1014CA0000302000A0002008FB000030F3000030AC
:1014DA00F2000030F1000030F0007908A000200886
:1014EA00FA00952A7B1C802A7B3601382000A0004E
:1014FA002008FB00822A0310FB0C7018FB1701302E
:10150A002000A000F337F20CF10CF00CA00B872A94
:10151A000130A0002008FA0779087A02031C772A0A
:10152A00781BC82A7A08031DA32A0030F30000306A
:10153A00F2000030F1000030F00008007408F007F3
:10154A007508F13D7608F23D7708F33D731C432B8D
:10155A007B1CB62A7B3601382000A0002008FB003D
:10156A00B82A0310FB0C7018FB1701302000A000EA
:10157A00F337F20CF10CF00CA00BBD2A0130A000DD
:10158A002008FA07432B7308803A2000A000770846
:10159A00803A2002031DDB2A76087202031DDB2A29
:1015AA0075087102031DDB2A740870020318132BD5
:1015BA00FF30A000FF30A100FF30A200FF30A300DF
:1015CA0070087402A4007108753BA5007208763B86
:1015DA00A6007308773BA7002408A0072508A13DA9
:1015EA002608A23D2708A33D2308F3002208F2009B
:1015FA002108F1002008F0008030A0002008F80639
:10160A00FB09FB0A7B08031D1B2B0130F007003086
:10161A00F13D0030F23D0030F33D1B2B7408F0021F
:10162A007508F13B7608F23B7708F33B73087204BE
:10163A0071047004031D412B7B08031D412B0030EC
:10164A00F3000030F2000030F1000030F000080032
:10165A000130F035F10DF20DF30D890B2E2BFB1B2A
:10166A0070147B1C3A2B03143B2B0310FB0D7A08D6
:10167A000319412B0130FA02F21F2D2BF901FB1F2E
:10168A004E2B7B087F39031970184C2B4E2BF9010E
:10169A00F90A790803197B2B0130F0070030F13D74
:1016AA000030F23D0030F33D731C7B2B70082000A4
:1016BA00A0007108A1007208A2007308A3000130FB
:1016CA00A400A337A20CA10CA00CA40B662B230820
:1016DA00F3002208F2002108F1002008F0007A0A3B
:1016EA0003197B2B0130A0002008FA077A0A031D90
:1016FA007A08031D8B2B0030F3000030F200003013
:10170A00F1000030F0007A080319F8017A1C8F2BD7
:10171A00F217942B7F302000A0002008F2057A36B9
:10172A002000A0002008F300F81F0800F3170800A3
:10173A00200031088039B6003608BB003135B600C2
:10174A003608C100B01B411441080319B92B410ADC
:10175A00031DB72B0030B1000030B0000030AF00DD
:10176A000030AE00B017C12B0030B1000030B0001D
:10177A000030AF000030AE0035088039B6003608B8
:10178A00BB063535B6003608C000B41B4014400805
:10179A000319DC2B400A031DDA2B0030B500003098
:1017AA00B4000030B3000030B200B417E42B0030AC
:1017BA00B5000030B4000030B3000030B200400879
:1017CA00031D4108031DF22B0030B1000030B000A8
:1017DA000030AF000030AE0008002E08B600360810
:1017EA00F00034089F31E1278B3171082000C700CF
:1017FA007008C6004608B600B701B801B901390831
:10180A00BF003808BE003708BD003608BC004708CC
:10181A00B600B701B801B9013908C5003808C400D3
:10182A003708C3003608C2002F08B6003608F00091
:10183A0033089F31E1278B3171082000C7007008F7
:10184A00C6004608B600B701B801B9013608BC0798
:10185A003708BD3D3808BE3D3908BF3D4708B600C8
:10186A00B701B801B9013608C2073708C33D3808BD
:10187A00C43D3908C53D3008B6003608F0003208C4
:10188A009F31E1278B3171082000C7007008C6001C
:10189A004608B600B701B801B9013608BC073708CF
:1018AA00BD3D3808BE3D3908BF3D4708B600B701FF
:1018BA00B801B9013608C2073708C33D3808C43D24
:1018CA003908C53D0830BC35BD0DBE0DBF0D890BAD
:1018DA00682C2F08B6003608F00032089F31E1273D
:1018EA008B3171082000C7007008C6004608BC0783
:1018FA004708BD3D0030BE3DBF3D2E08B600360844
:10190A00F00033089F31E1278B3171082000C700AE
:10191A007008C6004608BC074708BD3D0030BE3DFA
:10192A00BF3D0830BC35BD0DBE0DBF0D890B972CD0
:10193A002E08B6003608F00032089F31E1278B31B5
:10194A0071082000C7007008C6004608BC0747088F
:10195A00BD3D0030BE3DBF3D2F08B6003608F00041
:10196A0034089F31E1278B3171082000C7007008C5
:10197A00C6004608C2074708C33D0030C43DC53DFE
:10198A003008B6003608F00033089F31E1278B3162
:10199A0071082000C7007008C6004608C207470839
:1019AA00C33D0030C43DC53D3008B6003608F000DE
:1019BA0034089F31E1278B3171082000C700700875
:1019CA00C6004608B6004708B700B801B901083092
:1019DA00B635B70DB80DB90D890BED2C3608C2070F
:1019EA003708C33D3808C43D3908C53D3C08B60030
:1019FA003D08B7003E08B8003F08B9001830B936AC
:101A0A00B80CB70CB60C890B042D3608C207370878
:101A1A00C33D3808C43D3908C53D0830BC35BD0D45
:101A2A00BE0DBF0D890B132D41084007B600B70143
:101A3A00B70D3608823EC600FF30373DC700C41BCB
:101A4A003B2D0130C235C30DC40DC50D890B272DA1
:101A5A00BF1B42140130BC35BD0DBE0DBF0D890B35
:101A6A00302DFF30C607FF30C73D242DC001BF1FF0
:101A7A00542DFF303C05B600FF303D05B700FF305E
:101A8A003E05B8007F303F05B900390838043704ED
:101A9A00360403194218522D542DC001C00A4008B9
:101AAA0003197D2D0130C2070030C33D0030C43D0B
:101ABA000030C53D451C7D2D4208B6004308B700DD
:101ACA004408B8004508B9000130BA00B937B80C63
:101ADA00B70CB60CBA0B6B2D3908C5003808C40010
:101AEA003708C3003608C2000130C6070030C73DB8
:101AFA004708803AB60080303602031D862DFF3033
:101B0A004602031C922D7F302000C5008030C4009D
:101B1A000030C3000030C200BC2D20004708803AC4
:101B2A00B60080303602031D9C2D01304602031890
:101B3A00A92D00302000C5000030C4000030C300C9
:101B4A000030C200BB01BC2D20004608B600360892
:101B5A00C100FF30C205FF30C3057F30C405003025
:101B6A00C5054118C4174136B6003608C5003B08FA
:101B7A00B6003608C5044508B1004408B000430859
:101B8A00AF004208AE0008002100EB0020005D080B
:101B9A0086008701403FDF00413FE0005F08840084
:101BAA00600885001200253A031DDB2F5D088600B8
:101BBA0087010130810741310318810A2200C401DB
:101BCA00C501C801C901FF30C600FF30C7002000A7
:101BDA005D0886008701403FDF00413FE0005F0863
:101BEA008400600885000008E100E2016108F6004F
:101BFA006208F700903159208D3176082000E30001
:101C0A0063082100E700670803194C2E20005D08CD
:101C1A0086008701403FDF00413FE00001305F0757
:101C2A00840060080318600A85000008E100E201E8
:101C3A006108F6006208F700903159208D31760864
:101C4A002000E30063082100E800680803194C2E0D
:101C5A0020005D0886008701403FDF00413FE00029
:101C6A0002305F07840060080318600A85000008D4
:101C7A00E100E2016108F6006208F700903159209C
:101C8A008D3176082000E30063082100E900200076
:101C9A005D0886008701403FDF00413FE0005F08A2
:101CAA008400600885001200643A03196B2E5D08EF
:101CBA0086008701403FDF00413FE0005F08840063
:101CCA00600885001200693A031DB92E5D08860076
:101CDA0087010130810741310318810A5E088600B5
:101CEA008701010884000130850002308107003F26
:101CFA00DF00013FE0005F082100D90020006008F2
:101D0A002100DA00890D893B8909DB00DC00DD004E
:101D1A00DE00DF00E00059082000B00021005A0868
:101D2A002000B10021005B082000B20021005C08FD
:101D3A002000B30021005D082000B40021005E08E5
:101D4A002000B50021005F082000B60021006008CD
:101D5A002000B70021006B08883163202000310879
:101D6A00DE003008DD000800663021006706031D2A
:101D7A00092F20005D0886008701403FDF00413FB0
:101D8A00E0005F088400600885000008E10061083F
:101D9A002100EA0020005D088600870101308107E2
:101DAA0041310318810A5E08860087010108840010
:101DBA000130850004308107003F2100E300013F24
:101DCA00E400023FE500033FE60066082000D70072
:101DDA00210065082000D600210064082000D500F3
:101DEA00210063082000D40021006A082000DF00D7
:101DFA005F08D80021006B088131A5212000550811
:101E0A00DE005408DD0008007930F0009830F10057
:101E1A000230F2000030F300E7309131BC218D31FD
:101E2A0070087104031DA62F20005D088600870133
:101E3A00403FDF00413FE00001305F078400600857
:101E4A000318600A85000008E10061082100EA0021
:101E5A0020005D0886008701403FDF00413FE00027
:101E6A005F088400600885000008BF3EE100FF307B
:101E7A0003180030E200003062021A3003196102CE
:101E8A000318492F01304A2F0030E300E4016308A8
:101E9A002100E100200064082100E20061086204D8
:101EAA0003196A2F20005E08860087010108840052
:101EBA000130850004308107003F2100E300013F23
:101ECA00E400023FE500033F7C2F20005E08860005
:101EDA008701010884000130850004308107003F32
:101EEA002100E300013FE400023FE500033FE60072
:101EFA0020005D08860087010230810741310318FE
:101F0A00810A210066082000D70021006508200008
:101F1A00D600210064082000D500210063082000B3
:101F2A00D40021006A082000DF005F08D8002100E1
:101F3A006B088131A52120005508DE005408DD0018
:101F4A00080020005D0886008701403FDF00413F0E
:101F5A00E0005F088400600885001200253A031D2E
:101F6A00D02F5D08860087010130810741310318AF
:101F7A00810A2530F2000030F30021006B082000AE
:101F8A00DF005F08F4009031FA2001302000DD0004
:101F9A000030DE0008005D088600870101308107F5
:101FAA0041310318810ADD01DE0108005D0886005F
:101FBA008701403FDF00413FE0005F08840060087E
:101FCA0085000008E100E2016108F2006208F300FE
:101FDA0021006B082000E3006308F4009031FA2026
:101FEA008D3120005D08860087010130810741316B
:101FFA000318810ACA2F9E31D22690319031CA2005
:10200A0090319E31E32690319E31F72690319F31EF
:10201A00142790319F31052790319E31EC2690315B
:10202A009F316727903190317A2008008030200054
:10203A00CB064F08F3004E08F2004D08F1004C0899
:10204A00F0004B08F7004A08F6004908F50048086E
:10205A00F4008931B42173082000CB007208CA0049
:10206A007108C9007008C8000800F7007108F50077
:10207A007008F4007708F2007208F6007608860005
:10208A0001308700F60A7508F3007408F200F40AB2
:10209A000319F50A72088400730885000008C03F16
:1020AA0089080319080043287608BF3EF800FF3064
:1020BA00773DF900003079021A30031978020318C3
:1020CA006828013069280030FA00FB017A08FC0010
:1020DA007B08FD007C087D04031908002030760483
:1020EA00F60000307704F7000800083022009F004D
:1020FA0090309D0024309E0019309B009C010030D6
:10210A00F0000030F1009E31B22690310030F0002C
:10211A000030F1009E31B82690310030F0000030D6
:10212A00F1009E31AC262000EF0108002000EA00F1
:10213A006608EC006508EB002200C201C30120001A
:10214A006B0884006C08850012000319C1286B30E3
:10215A00E8006808DD006708E9006908DE006A0827
:10216A008D31C925903120005D082200C207200068
:10217A005E082200C33DA428220043082000E6008E
:10218A00220042082000E50008002000960197017D
:10219A0001309800F6309100EF3092000A30930037
:1021AA00E4303E00CE00CF30C300D630B800E5019F
:1021BA00C401B9011830CF00BA01C501D001FF30FE
:1021CA00BB00FF30C600FF30D1001030A000113034
:1021DA003D00CB000D30930005309C000F303E00CF
:1021EA00A40013303D009E0008007408031D740803
:1021FA00031D032972089E319C2608007408033EB9
:10220A008600870116000104031926297408033E73
:10221A0086008701403FF500413FF600740A8600B8
:10222A008701403FF700413FF8007808803AF900FB
:10223A007608803A7902031D242975087702031863
:10224A000800740A860087010130810741310318AA
:10225A00810A0800F601F31F3929F209F309F20A83
:10226A000319F30AF601F60AF11F4029F009F109E8
:10227A00F00A0319F10A7008710403196729F501B4
:10228A00F50AF11B52290130F035F10D890B492964
:10229A000130F4007408F507462971087302031D1A
:1022AA00582970087202031C5E297008F20271082C
:1022BA00F33B0130F136F00C890B5F290130F5024E
:1022CA00031D5229760803196F29F209F309F20A44
:1022DA000319F30A7308F1007208F00008000030CD
:1022EA007005F80000307105F90080307205FA00B7
:1022FA007F307305FB007B087A0479047804031D98
:10230A008E290030F3000030F2000030F100003076
:10231A00F00000307405F80000307505F9008030CF
:10232A007605FA007F307705FB007B087A0479048A
:10233A007804031DA8290030F7000030F6000030A9
:10234A00F5000030F40077087306031DB6297608F5
:10235A007206031DB62975087106031DB62974088D
:10236A0070060319BA290310080003140800F500BF
:10237A007508F4007408F8007108F7007008F60090
:10238A000130F2020030F33B720A031DF629730A88
:10239A00031DF629F001F101080076088400770888
:1023AA00850012000319FC29720873040319FC2919
:1023BA0076088400770885000008F400780886000B
:1023CA00870101087406031DFC290130F400740812
:1023DA00F8070130F6070030F73D0130F20200300D
:1023EA00F33B7808860087010108031DD229780883
:1023FA0086008701760884007708850000080102B4
:10240A00F000F101031CF10308002000AC002200D7
:10241A00481C182A20002C08A7002708FA002408BC
:10242A008031052092312000A61B202A2608AB0005
:10243A002508AA00222AAA01AB01A801A901290894
:10244A00803AA7002B08803A2702031D2E2A2A0861
:10245A0028020318422A2030F2000030F30020003C
:10246A002C08A7002708F4009031FA209231013095
:10247A002000A8070030A93D242A220048184E2A25
:10248A0020002C08A7002708FA002408803105201C
:10249A009231200024089F31AB2720002A087007B8
:1024AA00A4002B08713DA50008000310720D730DDE
:1024BA00F4007408FA007A08031D6C2A0030F3004D
:1024CA000030F2000030F1000030F000080070081F
:1024DA00F4007108F5007208F6007308F7001F305F
:1024EA00F736F60CF50CF40C890B752A7408F8000B
:1024FA007808F900F217FF30F005FF30F105FF30D8
:10250A00F2050030F3059630FA02FA1F9F2A7A087C
:10251A00803A973E031C632A0130F336F20CF10C21
:10252A00F00C890B922A0130F4007408FA07031997
:10253A00B02A912A20307A020318632A7A080319EA
:10254A00B02A0130F035F10DF20DF30D890BA72AEF
:10255A000130FA02A32A790803190800F009F109DF
:10256A00F209F309F00A0319F10A0319F20A031925
:10257A00F30A0800200017160032200017122E0056
:10258A0011100030F000F1008831032092318831B7
:10259A00002092312E00111CCF2A3C302000B100BD
:1025AA000430B000D730AF00DF30AE009F31C32710
:1025BA00923170082200AA007108AB00AC01AD018B
:1025CA002D082000A30022002C082000A2002200CF
:1025DA002B082000A10022002A082000A0000030B9
:1025EA0094312024923120002308B5002208B40037
:1025FA002108B3002008B2008B319D2392312000BC
:10260A0031082200B100200030082200B00020006A
:10261A002F082200AF0020002E082200AE00003052
:10262A00A0009830A1003108A5003008A4002F08A6
:10263A00A3002E08A2009F31512722003108A900C9
:10264A003008A8002F08A7002E08A60008002200BC
:10265A0041082000A500220040082000A400220012
:10266A003F082000A30022003E082000A2007308B1
:10267A00A5007208A4007108A3007008A20022082D
:10268A00F4002308F5002408F6002508F70017309F
:10269A00F736F60CF50CF40C890B4D2BFF3074054C
:1026AA00A00000307505A10020082104031D7C2B21
:1026BA002208F4002308F5002408F6002508F7008C
:1026CA000130F435F50DF60DF70D890B662B7708F9
:1026DA00760475047404031D772B0230F000003071
:1026EA00F10008000330F0000030F1000800200A71
:1026FA002104031D9F2B2208F4002308F500240857
:10270A00F6002508F7000930F435F50DF60DF70D3A
:10271A00890B892B7708760475047404031D972B9B
:10272A000130982B0030F800F9017808F000790898
:10273A00F10008000430F0000030F1000800003019
:10274A0020004805D00000304905D10080304A05F4
:10275A00D2007F304B05D300530852045104500471
:10276A00031DBF2B0030CB000030CA000030C90067
:10277A000030C80000304C05D00000304D05D100B3
:10278A0080304E05D2007F304F05D30053085204E3
:10279A0051045004031DD92B0030CF000030CE0065
:1027AA000030CD000030CC00CB1FF32B0030D0001E
:1027BA000030D1000030D2008030D3004808D00267
:1027CA004908D13B4A08D23B4B08D33B5308CB00BC
:1027DA005208CA005108C9005008C800CF1F0D2C62
:1027EA000030D0000030D1000030D2008030D30059
:1027FA004C08D0024D08D13B4E08D23B4F08D33B80
:10280A005308CF005208CE005108CD005008CC0022
:10281A008030CB068030CF064F084B02031D0800DC
:10282A004E084A02031D08004D084902031D08000C
:10283A004C08480208002000A8002808031DA31F0E
:10284A00362C2009AA002109AB002209AC00230971
:10285A00AD00AA0A0319AB0A0319AC0A0319AD0A97
:10286A003E2C2308AD002208AC002108AB0020084A
:10287A00AA002308220421042004031D4D2C003041
:10288A00A3000030A2000030A1000030A000080020
:10289A009630A4002408A900FE302D050319742CD3
:1028AA000130A4002408A9070130AD36AC0CAB0CEA
:1028BA00AA0C890B5A2C512C0130A4002408A90710
:1028CA000130AA070030AB3D0030AC3D0030AD3DD1
:1028DA000130AD36AC0CAB0CAA0C890B6E2CFF3058
:1028EA002D050319862C612C02302902031C882C21
:1028FA000130A9020130AA35AB0DAC0DAD0D890B23
:10290A00802CAC1F792C2918922CFF30AA05FF3095
:10291A00AB057F30AC05FF30AD050310A90C2908C3
:10292A00A400A501A601A7011830A435A50DA60D7E
:10293A00A70D890B9A2C2408AA042508AB0426089B
:10294A00AC042708AD042808031DA31FAD2CAD173E
:10295A002D08A3002C08A2002B08A1002A08A00019
:10296A00080090310020943120001716033022000D
:10297A00B3008A30B2005530890BC12CB20BC12C7E
:10298A00B30BC12C00322200B801B901D32C2000AC
:10299A0016109E31BE269431200096159E31A1262E
:1029AA009431003A0319CC2C200096111614923156
:1029BA00BF22943122002908B7002808B600270848
:1029CA00B5002608B40041302000CB00F030CA0020
:1029DA000030C9000030C800220037082000CF00AC
:1029EA00220036082000CE00220035082000CD0043
:1029FA00220034082000CC009331A4239431031818
:102A0A000A2D9E31A6269431C82C41302000CB00D5
:102A1A00F030CA000030C9000030C8002200370870
:102A2A002000CF00220036082000CE002200350800
:102A3A002000CD00220034082000CC009331A423CA
:102A4A009431031CD32C9E31BE26943101302200CE
:102A5A00B8070030B93D5C30A0009830A1003908B1
:102A6A00A3003808A2009F31512794312D3022004B
:102A7A00A0009830A1009F315127943122003908D3
:102A8A00803AB20080303202031D4D2D06303802E2
:102A9A00031CD32C9F31272794319F313C27943133
:102AAA009E31BE269431C82C22003D082000C00069
:102ABA0022003C082000BF0022003B082000BE0084
:102ACA0022003A082000BD003008C0002F08BF00CD
:102ADA002E08BE002D08BD003D08B1003E08B20018
:102AEA003F08B3004008B4001730B436B30CB20C38
:102AFA00B10C890B7A2DFF303105B5000030320553
:102B0A00B6003508813EBB00FF30363DBC003C08AC
:102B1A00803AB10080303102031D952D17303B02F7
:102B2A00031808002000BC1BF22DFF30B100FF3053
:102B3A00B2007F30B3000030B4003B0AA82DB4378E
:102B4A00B30CB20CB10C890BA42D3408BA003308AB
:102B5A00B9003208B8003108B7003D083705B1009E
:102B6A003E083805B2003F083905B30040083A0567
:102B7A00B4003408330432043104031908003D0850
:102B8A00B1003E08B2003F08B3004008B4001F304D
:102B9A00B436B30CB20CB10C890BCD2D3408330406
:102BAA00320431040319E12D3708BD073808BE3D48
:102BBA003908BF3D3A08C03D3709B1003809B200AB
:102BCA003909B3003A09B4003108BD053208BE0517
:102BDA003308BF053408C005282E3D08B1003E0859
:102BEA00B2003F08B3004008B4001F30B436B30C3B
:102BFA00B20CB10C890BFB2D3408330432043104B6
:102C0A00031D0B2E0030C0000030232E3D08B100FA
:102C1A003E08B2003F08B3004008B4000130B135A5
:102C2A00B20DB30DB40D890B142E340833043204DB
:102C3A0031040319282EBF30C0008030BF00003095
:102C4A00BE000030BD004008B0003F08AF003E089B
:102C5A00AE003D08AD000800F201283086000030C1
:102C6A008700473FF000F01F5B2E2000A809A90942
:102C7A00AA09AB09AC09AD09AE09AF09A80A031D37
:102C8A00592EA90A031D592EAA0A031D592EAB0A49
:102C9A00031D592EAC0A031D592EAD0A031D592EC8
:102CAA00AE0A031D592EAF0AF201F20A203086003D
:102CBA0000308700473FF000F01F822E2000A00955
:102CCA00A109A209A309A409A509A609A709A00A95
:102CDA00031D822EA10A031D822EA20A031D822E23
:102CEA00A30A031D822EA40A031D822EA50A031D10
:102CFA00822EA60A031D822EA70A2000200821047C
:102D0A002204230424042504260427040319DA2EA2
:102D1A00F101F10AA71B9E2EA035A10DA20DA30D4C
:102D2A00A40DA50DA60DA70D0130F0007008F1073E
:102D3A008F2E27082F02031DBC2E26082E02031DE4
:102D4A00BC2E25082D02031DBC2E24082C02031DAF
:102D5A00BC2E23082B02031DBC2E22082A02031DA7
:102D6A00BC2E21082902031DBC2E20082802031CA0
:102D7A00CE2E2008A8022108A93B2208AA3B230834
:102D8A00AB3B2408AC3B2508AD3B2608AE3B2708E5
:102D9A00AF3BA736A60CA50CA40CA30CA20CA10C45
:102DAA00A00C0130F102031D9E2E72080319FB2E9E
:102DBA00A809A909AA09AB09AC09AD09AE09AF0965
:102DCA00A80A031DFB2EA90A031DFB2EAA0A031D2E
:102DDA00FB2EAB0A031DFB2EAC0A031DFB2EAD0A0C
:102DEA00031DFB2EAE0A031DFB2EAF0A2000280886
:102DFA00A0002908A1002A08A2002B08A3002C0879
:102E0A00A4002D08A5002E08A6002F08A700080078
:102E1A00F2012030860000308700473FF000F01FA3
:102E2A00372F2000A009A109A209A309A409A5090D
:102E3A00A609A709A00A031D352FA10A031D352FCC
:102E4A00A20A031D352FA30A031D352FA40A031D49
:102E5A00352FA50A031D352FA60A031D352FA70AEC
:102E6A00F201F20A2830860000308700473FF0005E
:102E7A00F01F622F2000A809A909AA09AB09AC0909
:102E8A00AD09AE09AF09A80A031D5E2FA90A031DE1
:102E9A005E2FAA0A031D5E2FAB0A031D5E2FAC0A22
:102EAA00031D5E2FAD0A031D5E2FAE0A031D5E2FA2
:102EBA00AF0A0130F0007008F20673308600003065
:102ECA0087000830F00000301E00F00B692F200048
:102EDA0020082104220423042404250426042704A8
:102EEA000319CD2FF101F10AA71B882FA035A10DD7
:102EFA00A20DA30DA40DA50DA60DA70D0130F0007E
:102F0A007008F107792FF335F40DF50DF60DF70D6D
:102F1A00F80DF90DFA0D27082F02031DAE2F26080A
:102F2A002E02031DAE2F25082D02031DAE2F2408E5
:102F3A002C02031DAE2F23082B02031DAE2F2208DD
:102F4A002A02031DAE2F21082902031DAE2F2008D5
:102F5A002802031CC12F2008A8022108A93B220825
:102F6A00AA3B2308AB3B2408AC3B2508AD3B26080B
:102F7A00AE3B2708AF3B7314A736A60CA50CA40CCE
:102F8A00A30CA20CA10CA00C0130F102031D882F86
:102F9A0072080319EE2FF309F409F509F609F7097E
:102FAA00F809F909FA09F30A031DEE2FF40A031DB9
:102FBA00EE2FF50A031DEE2FF60A031DEE2FF70A70
:102FCA00031DEE2FF80A031DEE2FF90A031DEE2F3B
:102FDA00FA0A73082000A0007408A1007508A2006C
:102FEA007608A3007708A4007808A5007908A60047
:102FFA007A08A70008000A340D344534633468346B
:10300A006F34203477346134733420346A3475343D
:10301A00733474342034633461346C346C346534FE
:10302A00643420342534663400340A340D346D3463
:10303A006F34763469346E34673420344234613400
:10304A0063346B34773461347234643473340034E7
:10305A000A340D34533454344F34503445344434E0
:10306A0020344D346F3474346F3472347334003412
:10307A000A340D347434753472346E3469346E34EF
:10308A006734203452346934673468347434003411
:10309A000A340D347434753472346E3469346E34CF
:1030AA00673420344C3465346634743400340A345A
:1030BA000D3463346F3475346E34743420343A34D6
:1030CA00203425346434003449344E3446340034D0
:1030DA004E3441344E34003469346E34663400342C
:0E30EA006E3461346E3400346C34663400345D
:103D3800F10071089E31CA2608003C00100E890C5B
:103D48000139080020009817181118179812080050
:103D580071082200CB007008CA0008007108220010
:103D6800CF007008CE00080071082200CD0070084E
:103D7800CC00080020009813181118139812080096
:103D8800640080010131890BC52E0034F0002E003B
:103D98000F1ECB2E700822009A0008002F009601F3
:103DA8009701980199019A019B0108007308720410
:103DB80071047004031908008030F30608006230AB
:103DC80031008D008F0191010230930092010800AB
:103DD8008030270092007F309100C0309000303052
:103DE80024009F040800013025009C009B019D01D0
:103DF800FF30990098012E009012A03025009A00FB
:103E0800080001302500900011308F009101C23068
:103E18008D008C012E009010F03025008E000800D7
:103E28000A303C0091000C3092000C3093000C30AA
:103E380094000C3095000230960097019801990182
:103E4800863090000800200098131815181398164B
:103E5800A3302000EE005530890B302FEE0B302FA9
:103E68001A302200A0009830A1009F315127080085
:103E780020009813181518179812A3302000EE0088
:103E88005530890B452FEE0B452F3D302200A00001
:103E98009830A1009F315127080022302000ED0002
:103EA8006D082100EE00220021082000E600220013
:103EB80020082000E500EE30ED006D08E700003036
:103EC80090319B200800D03024008F0090010230F0
:103ED800910083308D008C010D082200D100240050
:103EE8000C082200D0002E001010013024008E0093
:103EF80008007408803AF50080307502031D862F8B
:103F080001307302031808007309F5007409F600FC
:103F1800F50A0319F60A7508F3007608F400080094
:103F28007008BF3EF200FF30713DF30000307302AD
:103F38001A30031972020318A32F0130A42F00307E
:103F4800F400F5017408F0007508F1000800F400A9
:103F58007408F2007208F3007408860001308700C4
:103F680001080319BC2F0130F2007208F407B02FC2
:103F780073087402F000F101F01BF103080024003B
:103F88008E140C08F2007208FA000D08F20072088C
:103F9800F9007A08F200F3017908F400F5017408D1
:103FA800F500F40172087404F70073087504F8004A
:103FB8007808F1007708F0000800F800F401F5012E
:103FC8007008F200F3017208F6007308F700781C15
:103FD800F12F7608F4077708F53D0130F635F70D2F
:103FE800890BF22F0310F80C7808031DEB2F7508C6
:083FF800F1007408F00008005C
:020000040001F9
:0A000E00EC3FFF3F9F3FFF3FFF3F25
:00000001FF
